:020000041000EA
:10100000500500201D100010000000009D10001071
:101010000018040000010000000000801149124A7D
:10102000124B00F018F8124880471249124A134B2D
:1010300000F011F81249134A134B00F00CF8134951
:10104000134A0020521A02DD043A8850FCDC114891
:101050008047114880479B1A03DD043BC858D05095
:10106000FBDC7047586900100C0000205001002084
:10107000A11000109C6A00105005002044060020BA
:10108000906B001044060020440600204406002017
:1010900014080020B564001049640010FEE7000049
:1010A00080B500AF04F0D4FD04F020FEBD4680BD45
:1010B00080B500AF2A4B1A68FF231B0213401A0A9F
:1010C000284B1A60274B1B68002B37D0244B1B681A
:1010D000FF221A40244B1A60214BDB690322134084
:1010E0001A02214B1B681A431F4B1A601C4BDA690A
:1010F00080239B0013400ED11A4B1B689A021A4B97
:101100001B68D3181948191C00F052FE031C1A0161
:10111000174B1A6021E000F02FF8031C9901114BC6
:101120001B689A02104B1B68D318081C191C00F08E
:101130003FFE031C1A010E4B1A600EE0084BDA69E1
:1011400080239B00134003D1094B0A4A1A6004E034
:1011500000F012F8021C064B1A60BD4680BDC04666
:1011600000030140440600204806002000001BB791
:10117000FC3F0020006CDC0280B500AF014B181C66
:10118000BD4680BD002D310190B585B000AFF8603F
:101190007A600B23FB180A1C1A700B23FB181B78B0
:1011A0009B08DBB2181C0B23FB181B789B08DBB2D7
:1011B0001A1CFB6804329200D3580B22BA1812781A
:1011C00003210A40D200111CFC228A40D2431A405B
:1011D000111CFB68021D9200D150FB685B6F0B2253
:1011E000BA1812785200111C03228A40D2431A40C6
:1011F000FB685A670B23FB181B78DB08DBB2181C53
:101200000B23FB181B78DB08DBB21A1CFB681032BF
:101210009200D3580B22BA18127807210A40920084
:10122000111C04228A40D2431A40111CFB68021C84
:1012300010329200D1500B23FB181B78DB08DBB275
:10124000181C0B23FB181B78DB08DBB21A1CFB688D
:1012500010329200D2587B685B781C1C0B23FB1861
:101260001B7807210B409B009C40231C1A43111C38
:10127000FB68021C10329200D150FB68204A934256
:101280000BD1FB681B6E0B22BA181278012191401A
:101290000A1CD2431A40FB681A667B681B78DBB2D3
:1012A0005BB2002B07DA7B685A680B23FB181B78AC
:1012B0009A40FB685A600B23FB181B789B08DBB233
:1012C000181C0B23FB181B789B08DBB21A1CFB684D
:1012D00004329200D2587B681B781C1C0B23FB182D
:1012E0001B7803210B40DB009C40231C1A43111C7C
:1012F000FB68021D9200D150BD4605B090BDC046AE
:101300000002044080B500AF024BC3225A62BD46C2
:1013100080BDC0460000014080B500AF054BC02233
:101320005A62C046034B5B6A04221340FAD1BD46A1
:1013300080BDC0460000014080B586B000AF786037
:10134000FFF7EAFF7B689B79302B53D0FFF714FF40
:10135000021E494B9A4209D9484A48499023CB5A20
:101360009BB240210B4399B29023D152434A434947
:101370009023CB5A9BB29BB2191C322399430B1C6E
:1013800099B27B689B799BB20B439BB299B2902335
:10139000D1523B4B02229A623A4B3A4A52693A493D
:1013A0000A405A61394B7B6100E0C0467B69013BD2
:1013B0007B617B69002BF8D1324B324A5269C021E4
:1013C00089040A435A61C0462E4B5A6980235B0444
:1013D0001340F9D12E4B3B6100E0C0463B69013B15
:1013E0003B613B69002BF8D1254B1B6A022213405D
:1013F000CFD109E0214A21499023CB5A9BB2302119
:101400000B4399B29023D1521C4A7B68DB7999B285
:101410008C23D1527B68DB79002B09D11D4BFB60FB
:1014200000E0C046FB68013BFB60FB68002BF8D185
:10143000144B144AD26918490A40796889880A43CA
:10144000DA61104A0F4B1B68144919407B68DB684E
:1014500019437B689B680B431360FFF753FF7B685E
:101460009B781A1C7B681B88101C191C00F044F820
:10147000BD4606B080BDC046002D310100100140C0
:101480003800014000030140FFFFFFFD1A02000089
:101490007D0A0000A02E6300FFFDFFFFFFFFF0FFAD
:1014A00080B582B000AF7860FFF736FF084B084A7E
:1014B00011697A680A431A61C046054B1A6880238D
:1014C000DB051340F9D1FFF71DFFBD4602B080BD1B
:1014D0000003014080B582B000AF7860054B9B6887
:1014E0007A6813405A1E9341DBB2181CBD4602B005
:1014F00080BDC0460003014080B584B000AF786075
:101500003960FFF709FF274B1A68FF231B021340BE
:101510001B0AFB60234B234AD26903218A43111C17
:101520003A68120A0A43DA611E4B1E4A12681E49C3
:1015300011403A68FF2002400A431C490A431A60DE
:10154000C046184B1A688023DB051340F9D1FA68AE
:101550007B689A4206D8FA687B68101C191C00F058
:1015600053F805E0FA687B68101C191C00F022F89B
:101570000C4B0C4A12680E4911407A6812020A4359
:101580000A490A431A60C046064B1A688023DB05E5
:101590001340F9D1FFF7B6FEFFF78AFDBD4604B050
:1015A00080BDC0460003014000FF0FC00000F03FB7
:1015B000FF000FC080B582B000AF7860396014E0E2
:1015C0007B689B087B600D4B0C4A12680C491140EC
:1015D0007A6812020A430B490A431A60C046074B55
:1015E0001A688023DB051340F9D13B689A007B68B9
:1015F0009A42E5D3BD4602B080BDC046000301401B
:10160000FF000FC00000F03F80B582B000AF7860EF
:10161000396019E07B68002B01D101237B607B6876
:101620009B007B600C4B0C4A12680C4911407A6895
:1016300012020A430A490A431A60C046064B1A6856
:101640008023DB051340F9D17B689A003B689A42FE
:10165000E0D3BD4602B080BD00030140FF000FC0D3
:101660000000F03F80B500AF024B1B68181CBD4660
:1016700080BDC046FC3F002080B582B000AF021C98
:10168000FB1D1A703B1D0A1C1A803B1D3A1D128857
:1016900003210A401A80FB1D1B780F2B13D8184B0F
:1016A000174AD26EF91D09784900081C03218140B0
:1016B000C9430A40391D0988F81D0078400081405F
:1016C0000A43DA6618E0FB1DFA1D12780F210A4062
:1016D0001A700B4B0A4A126FF91D09784900081C51
:1016E00003218140C9430A40391D0988F81D00784B
:1016F000400081400A431A67BD4602B080BDC04623
:101700000000014080B582B000AF78607A68E223C3
:101710005B00D258C0239B0013405A425341DBB2B6
:10172000181CBD4602B080BD90B583B000AF786094
:101730000C1C101C191CFB1C221C1A70BB1C021C4C
:101740001A707B1C0A1C1A70FB1C1A78BB1C1B78B5
:101750001904FF231B040B401A437B1C1B781B0638
:101760001A43111C7A68E2235B00D150BD4603B0D6
:1017700090BDC04680B582B000AF78607B681B68C2
:1017800040221A437B681A60BD4602B080BDC04645
:1017900080B582B000AF78607B681B6840229343BD
:1017A0001A1C7B681A60BD4602B080BD80B582B04D
:1017B00000AF786039607A683B68934200D2131CAE
:1017C000181CBD4602B080BD80B582B000AF786005
:1017D00039607A683B68934200D9131C181CBD46D7
:1017E00002B080BD80B588B000AF786039603B68DA
:1017F0001A683B685B68101C191C00F029FB0B1E63
:1018000000D096E00023FB610023BB613B681A68AF
:101810003B685B68101C191C00F0CAFA031CBB6013
:1018200019237B6100233B610023FB6049E0BB6817
:10183000181C796900F00CFB0B1E3FD10023BB6123
:10184000B868796900F0B4FA031CFB61FB69002BEE
:1018500034D0FA6980239B009A422FD8FB693F2B32
:1018600009D9FB690722134003D07B69013B7B61E7
:1018700027E00123BB617B69013B3A68128953432E
:10188000181C2E4900F094FA031C3B617A693B69ED
:10189000D31A013BFB603B69022B0FD93B690F2B2D
:1018A0000CD8FB68012B09D9FB68062B06D83B68CE
:1018B0005B891A1EFB689A4200D805E07B69013BF0
:1018C0007B617B69072BB2D87B69072B31D97B6899
:1018D000181CFFF74FFFFB68013B1A03E023DB01F5
:1018E0001A403B685B89013B9B01FF210B401A4377
:1018F0003B69013B1902F0231B010B401A43111CE9
:10190000BA69131C5B009B181A1CFB69D340013B8E
:101910003F2213400A1C1A43BB69DB031B041B0C48
:101920001A437B681A617B68181CFFF731FF00239C
:1019300000E00123181CBD4608B080BD1027000040
:1019400090B583B000AF7860081C111CFB1C021C12
:101950001A70BB1C0A1C1A70C0467B68181CFFF763
:10196000D1FE031C1A1C01235340DBB2002BF4D11F
:10197000FB1C1B780133DCB27A68BB1C1B78101C83
:1019800002211A1C231CFFF7CFFEBD4603B090BDF9
:1019900080B582B000AF786080239B03181CFFF7EE
:1019A0007FFD7B681B68012293431A1C7B681A60C9
:1019B000C0467B681B6802221340FAD1BD4602B0C4
:1019C00080BDC04680B582B000AF78600A1CFB1CA9
:1019D0001A707A68E4235B00D3580F2293431A1CD1
:1019E000FB1C1B781A43111C7A68E4235B00D1505E
:1019F000BD4602B080BDC04680B582B000AF786001
:101A00007A68E4235B00D358DBB20F221340DBB2C9
:101A1000181CBD4602B080BD80B584B000AF7860B0
:101A20000023FB607B68181CFFF7E6FF031E012BF9
:101A300002D0022B05D009E0FFF714FE031CFB6067
:101A400004E0FFF799FB031CFB60C046FB68181C11
:101A5000BD4604B080BDC04680B588B000AFF86018
:101A60007A600B23FB180A1C1A70FB68181CFFF71E
:101A70008FFFFA680B23FB181B78101C191CFFF74B
:101A8000A1FFFB68181CFFF7C7FF031CFB61F86987
:101A9000796800F08DF9031C1A1C8023DB009B1A67
:101AA0000020191CFFF782FE021C124B101C191C8F
:101AB000FFF78AFE031CBB61BB698022D200D31AE8
:101AC000F869191C00F074F9031C7B61FB68DB6882
:101AD000094A1A40FB68DA60FB68DA68BB6913439D
:101AE0008022D2011A43FB68DA607B69181CBD466C
:101AF00008B080BDFF030000003CFFFF80B586B04A
:101B000000AF78607B681B68484A944663445B0971
:101B10007B617B695B095A037B691F210B401B02B8
:101B200013433B617B681B687A681268926840497E
:101B30000A409A607B681B687A68126891683A6903
:101B40000A439A607B68DB7920221340DBB2002BCA
:101B500007D07B68DB7920221340DBB2002B00D159
:101B600061E07B681B7E002B04D07B681B7E012B11
:101B700000D058E07B681B682022DA617B68DB7943
:101B800020221340DBB2002B28D17B685B68FB600E
:101B9000FB685B0F5B07FB607B685B68DB00DB0857
:101BA0009B041A1CFB681343FB607B681B68FA6884
:101BB0009A617B689B68FB60FB685B0F5B07FB605F
:101BC0007B689B68DB00DB089B041A1CFB681343E3
:101BD000FB607B681B68FA68DA6009E07B681B6859
:101BE0007A6852689A617B681B687A689268DA60E2
:101BF0007B681B7E012B0DD17B68181C00F01EF842
:101C00007B681B6880221205DA617B681B68094AC1
:101C1000DA6108E07B681B6880221201DA617B6868
:101C20001B68054ADA61BD4606B080BD00F0FBAF17
:101C3000FF00FFFFC00020064006A00080B584B072
:101C400000AF78600F23FB1803221A707B681B7E9D
:101C5000012B25D17B681B682022DA617B681B6819
:101C60007A6812681268144911407A68127B10066B
:101C7000F022120502400A431A607B681B687A68EA
:101C800012691A617B681B687A6852695A617B68BD
:101C90001B680A4ADA610F23FB1800221A7003E05E
:101CA0000F23FB1803221A700F23FB181B78181C34
:101CB000BD4604B080BDC046FFFFFFF040002800D5
:101CC00080B586B000AF78601723FB1801221A7028
:101CD0007B681B68DB69202213405B093B617B68E2
:101CE0001B68DA6980235B0013401B0AFB603B69B9
:101CF000002B04D11723FB1804221A7010E0FB6894
:101D0000012B04D11723FB1802221A7008E07B680C
:101D10001B68E022D204DA611723FB1800221A7034
:101D20001723FB181B78181CBD4606B080BDC046A3
:101D300080B582B000AF786039603A688023DB03F9
:101D40009A4206D07B681A683B681A437B681A601F
:101D500005E07B689A693B681A437B689A61BD46D7
:101D600002B080BD80B582B000AF7860081C111C45
:101D7000FB1C021C1A70BB1C0A1C1A707B685B6F70
:101D8000FA1C12785200111C03228A40D2431A40D6
:101D90007B685A677B685A6FBB1C1B78F91C0978F3
:101DA00049008B401A437B685A67BD4602B080BD2C
:101DB00080B588B000AF78603960EFF310837B6145
:101DC0007B693B6172B63B69FB610C4B04225A6331
:101DD0000A4B7A681A62094B3A685A62074B9B6A47
:101DE000BB61FB69FB60FB68BB60BB6883F3108869
:101DF000BB69181CBD4608B080BDC046000003404A
:101E000080B588B000AF78603960EFF310837B61F4
:101E10007B693B6172B63B69FB610C4B00225A63E4
:101E20000A4B7A681A62094B3A685A62074B9B6AF6
:101E3000BB61FB69FB60FB68BB60BB6883F3108818
:101E4000BB69181CBD4608B080BDC04600000340F9
:101E5000F0B58DB000AF78603960EFF310827A6131
:101E60007A693A6172B63A69FA62154A0421516395
:101E7000134A79681162124A39685162104AD26A6B
:101E80003A6200227A620E4A926ABA610022FA61CC
:101E9000FA6AFA60FA68BA60BA6882F310883A6A35
:101EA00014000022131CBA691A43151CFA69224354
:101EB000161C2B1C341C181C211CBD460DB0F0BD7B
:101EC0000000034080B584B000AFF860B960FB1D2E
:101ED0001A70FB68181C00F067F9BB685B79002B6F
:101EE00019D1FB1D1B78002B15D0BB681B79002B6B
:101EF00009D0BB681B681A1CFB68181C111C022245
:101F000000F008FA07E0BB681B68FA68101C191C8F
:101F1000022200F085F9FB680E4A5A63FB68A22290
:101F2000D2009A63BB685B79002B07D1BB689B79B1
:101F30000B221343DBB21A1CFB68DA63FB68012235
:101F40005242DA64BB681B891A1CFB681A64BD46DE
:101F500004B080BD02013F0780B582B000AF786059
:101F600039607B68DB6B064A1A407B68DA637B6802
:101F7000DA6B3B681A437B68DA63BD4602B080BD0A
:101F8000FFFF00FF80B584B000AF78607A688623D9
:101F90005B00D258E023DB04134005D17B685A6D07
:101FA0000E23FB181A8006E07A688E235B00D25855
:101FB0000E23FB181A800E23FB181B88181CBD4625
:101FC00004B080BD80B582B000AF786039607B68B6
:101FD0001B6C3968FE2252020A40D2431A407B68C9
:101FE0001A647B68DB6B3A6852031204120CD2430A
:101FF0001A407B68DA63BD4602B080BD80B582B00E
:1020000000AF78607B689B6BDBB27F229343DBB2CF
:10201000181CBD4602B080BD80B582B000AF7860AC
:1020200039607B683A68DA64BD4602B080BDC0465C
:1020300080B586B000AFF860B960FB1D1A70102340
:102040007B61FB68181C00F0AFF8BB681B7A002BA3
:1020500002D0BB681B7A7B61FB1D1B78002B16D05E
:10206000BB681B79002B09D0BB681B68191C7B69F6
:10207000FA68101C1A1C00F04DF908E0BB681A68D9
:10208000F9687B69081C111C1A1C00F0C9F8BB68B0
:10209000DB79013B5A007B695B0801331B02134368
:1020A000194A1A43FB68DA63BB685B79013B1B067C
:1020B000812252001A43FB685A63BB689B79002B4C
:1020C00009D0FB685A6BBB689B79013B1B041A4320
:1020D000FB685A6308E0FB685A6BBB685B79013B9D
:1020E0001B041A43FB685A63FB68A022D2009A6360
:1020F000FB6801225242DA64BB685B891A1CFB68E8
:102100001A64BD4606B080BD0100030080B582B0F0
:1021100000AF78600A1CBB1C1A807A6884235B00BD
:10212000D258E023DB04134014D1C0467B68181C4E
:10213000FFF764FF031E802BF8D07A6880239B0191
:10214000101C191CFFF768FFBB1C1A887B688021D4
:102150005A5005E0BB1C19887A68C0235B00D15037
:10216000BD4602B080BDC04680B584B000AF786087
:102170007A6886235B00D258E023DB04134005D144
:102180007B685A6D0E23FB181A8006E07A688E234E
:102190005B00D2580E23FB181A800E23FB181B88F5
:1021A000181CBD4604B080BD80B582B000AF786019
:1021B0007A689023DB059A4203D07B68134A9342E6
:1021C00004D1134B181C00F00FFA0BE07B68114A86
:1021D000934203D07B68104A934203D10F4B181CE3
:1021E00000F002FA7B680322DA60C0467B68DB6895
:1021F00001221340FAD07B681B6C0F2293431A1CF8
:102200007B681A64BD4602B080BDC046000200482B
:1022100008000048004000480042004808400048CC
:1022200080B58EB000AFF860B9607A60BB68632B90
:1022300060D97B68002B5DD0FFF714FA031C181CD3
:102240006421FFF7B5FD031C3B62BB68181C6421C9
:10225000FFF7AEFD031CBB608023DB00FB620123A4
:10226000BB622A4B7B628023DB003B6325E03B6A39
:102270003A6B5A43111CBB687A685343081C191CFB
:10228000FFF796FD031CFB61FB699B0ABB61FB69C1
:102290009B059B0D7B61BA698023DB009A4209D8BC
:1022A0007A697B6A9A4205D27B697B62BB69BB62B1
:1022B0003B6BFB623B6B013B3B633B6B002BD6D123
:1022C000FB6A013B802212021A43FB681A61FB6819
:1022D0005B690F4A1A407B68013B9B021A43BB6A49
:1022E000013B1B041A43FB685A613723FB18002289
:1022F0001A7003E03723FB1801221A703723FB18EA
:102300001B78181CBD460EB080BDC046FF03000000
:10231000EF8000FC80B58CB000AFF860B9607A60E7
:10232000FFF7A0F9031C3B62BB687A685343FB616B
:102330000123FB623A6AFB699A4262DD386AF969F5
:10234000FFF75EFD031CBB620FE0FB6A0133FB621B
:10235000BB687A6853431A1CFB6A5343FB61386AB3
:10236000F969FFF74DFD031CBB62BB6A2A4A934221
:10237000EBD8396A7B68BA6A5343FA6A5343081C3C
:10238000191CFFF715FD031CBB61396ABB6A0133D9
:102390007A685343FA6A5343081C191CFFF708FD77
:1023A000031C7B61BA687B69D31AD9175A184A4053
:1023B000B968BB69CB1AD9175B184B409A4202DA4D
:1023C000BB6A0133BB62BB6A8022D200D31ABB62F4
:1023D000BB6A8022D2011A43FB681A61FB685B6901
:1023E0000E4A1A407B68013B9B021A43FB6A013B81
:1023F0001B041A43FB685A612723FB1800221A703A
:1024000003E02723FB1801221A702723FB181B78EF
:10241000181CBD460CB080BDFE030000EF8000FC20
:1024200080B584B000AFF860B9603B60FB1D1A70E6
:10243000FA6884235B00D3580E4A1340191CFA68CB
:1024400084235B00D150FA6884235B00D3580A4A86
:102450001A403B681902BB681943FB1D1B781B0619
:102460000B431A43111CFA6884235B00D150BD460C
:1024700004B080BDFFFFFFF8C0C0FFF880B584B096
:1024800000AFF860B9603B60FB1D1A70FA688623E4
:102490005B00D358104A1340191CFA6886235B006E
:1024A000D150FA6886235B00D3580C4A1A403B6827
:1024B0001902BB681943FB1D1B781B060B43134312
:1024C000802252051A43111CFA6886235B00D15002
:1024D000BD4604B080BDC046FFFFFFF8C0C0FFEF9F
:1024E00080B584B000AFF8607A600B23FB180A1C3B
:1024F0001A70FA6886235B00D358064A1A407B6834
:102500001B021A43111CFA6886235B00D150BD469A
:1025100004B080BDFFC0FFFF80B584B000AFF8609D
:102520007A600B23FB180A1C1A70FB689B690B224C
:10253000BA181278072191400A1CD2431A400B2383
:10254000FB181B78796899400B1C1A43FB689A6149
:10255000BD4604B080BDC04680B584B000AFF86011
:102560007A600B23FB180A1C1A70FA6884235B003C
:10257000D3580B22BA181278072191400A1CD24373
:102580001A400B23FB181B78796899400B1C1A43DF
:10259000111CFA6884235B00D150BD4604B080BD95
:1025A00080B584B000AFF8607A600B23FB180A1C7A
:1025B0001A70FA6886235B00D3580B22BA18127877
:1025C000072191400A1CD2431A400B23FB181B78A9
:1025D000796899400B1C1A43111CFA6886235B002A
:1025E000D150BD4604B080BD80B582B000AF7860E8
:1025F0007B68104A934209D10820FEF751FFC0467C
:102600000820FEF767FF031EFAD110E07B680A4A34
:1026100093420CD18023DB02181CFEF741FFC04619
:102620008023DB02181CFEF755FF031EF8D1BD46C0
:1026300002B080BD080000480840004880B584B062
:1026400000AF7860144B1B68002B02D1124B134A69
:102650001A60114B1B68FB607B68033303229343B2
:102660007B600D4B1A687B68D2180D4B9A4207D2DB
:10267000094B1A687B68D218074B1A60FB6806E0A2
:1026800003F012FF031C0C221A6001235B42181C8A
:10269000BD4604B080BDC0464C060020180800208E
:1026A000FC3F002080B500AFBD4680BD80B582B044
:1026B00000AF786039607B681A6C3B681A437B68AE
:1026C0001A64BD4602B080BD80B582B000AF7860AC
:1026D00039607B681B6C3A68D2431A407B681A6485
:1026E000BD4602B080BDC04680B582B000AF786004
:1026F0007B689B6BDBB27F229343DBB2181CBD4629
:1027000002B080BD80B582B000AF786039607A6871
:1027100084235B00D3583A68D2431A40111C7A686C
:1027200084235B00D150BD4602B080BD80B582B02D
:1027300000AF78607A688A235B00D25880235B01FF
:1027400013405A1E9341DBB2181CBD4602B080BD37
:1027500080B582B000AF78607A688A235B00D25877
:1027600080231B0113405A1E9341DBB2181CBD4647
:1027700002B080BD80B582B000AF786039607A6801
:1027800086235B00D2583B681A43111C7A68862363
:102790005B00D150BD4602B080BDC04680B582B05E
:1027A00000AF786039607A6886235B00D3583A6856
:1027B000D2431A40111C7A6886235B00D150BD4673
:1027C00002B080BD80B582B000AF78607A688C239B
:1027D0005B008021C901D150BD4602B080BDC0461A
:1027E00080B582B000AF78607A688A235B00D358E6
:1027F000082213405A1E9341DBB2181CBD4602B09A
:1028000080BDC04690B585B000AF78600F23FB183F
:1028100000221A707B685B685B680F22BC189847BF
:10282000031C23700F23FB181B78181CBD4605B032
:1028300090BDC04690B587B000AFF860B9607A60CF
:102840001723FB1804221A70FB685B682A229B5C22
:10285000002B00D00CE01723FC18F968BA687B68DD
:10286000081C111C1A1C00F00BF8031C2370C04636
:102870001723FB181B78181CBD4607B090BDC04637
:1028800080B586B000AFF860B9607A601723FB1896
:1028900004221A70FB689B683B61FB685B682A2214
:1028A0009B5C002B48D11723FB1802221A703B694E
:1028B0005B7EDBB201225340DBB2002B3CD0BB6815
:1028C000002B35D07B68002B32D03B69BA685A6048
:1028D0003B697A681A613B6901225A763B6900229A
:1028E0005A61FB685B682C229B5C002B13D0FB6851
:1028F0001B68181CFFF766FFFA687B68101C191C20
:1029000000F03EF9FB681A68C023DB05101C191C97
:10291000FFF730FF07E0FB681A68C0231B02101C9A
:10292000191CFFF7C3FE1723FB1800221A7003E0DF
:102930001723FB1803221A701723FB181B78181C87
:10294000BD4606B080BDC04680B584B000AF78609B
:102950007B689B68FB60FB68DA68FB689B689A424F
:1029600041D27B685B682B229B5C002B28D01AE04D
:10297000FB68DA68FB689B689A4212D27B68196828
:10298000FB681A68FB68DB68D3181B789BB2081CCD
:10299000191CFFF7BBFBFB68DB685A1CFB68DA609D
:1029A00001E0C04655E07B681B68181CFFF7BEFEBF
:1029B000031C1A1C01235340DBB2002BD8D148E082
:1029C0007B681968FB681A68FB68DB68D3181B789A
:1029D0009BB2081C191CFFF799FBFB68DB685A1CAB
:1029E000FB68DA6035E07B681B68181CFFF7B0FEF7
:1029F000031E2ED07B685B682B229B5C002B08D0CB
:102A00007B681A688023DB05101C191CFFF77AFE0F
:102A100007E07B681A6880239B01101C191CFFF7D4
:102A200053FEC0467B681B68181CFFF75DFE031E43
:102A3000802BF7D0FB6800221A76FB6800221A6010
:102A40007B685B689B68002B03D07B685B689B6836
:102A50009847BD4604B080BD90B585B000AF7860A2
:102A60007B689B68FB607B685B682C229B5C002B0F
:102A700051D033E0FB685A69FB681B699A4211D256
:102A8000FB685A68FB685B69D4187B681B68181C74
:102A9000FFF76AFB031CDBB22370FB685B695A1CFF
:102AA000FB685A61FB685A69FB681B699A4215D139
:102AB000FB6800225A767B681A68C023DB05101C6D
:102AC000191CFFF76BFE7B685B68DB68002B04D08A
:102AD0007B685B68DB6898470CE00BE07B681B68F1
:102AE000181CFFF77DFE031C1A1C01235340DBB2A8
:102AF000002BBFD1FB685A69FB681B699A423CD224
:102B0000FB681A69FB685B69D31A7A68101C191C88
:102B100000F036F831E0FB685A69FB681B699A429D
:102B200011D2FB685A68FB685B69D4187B681B6824
:102B3000181CFFF719FB031CDBB22370FB685B69F1
:102B40005A1CFB685A61FB685A69FB681B699A4208
:102B500013D1FB6800225A767B681A68C0231B02D7
:102B6000101C191CFFF7B0FD7B685B68DB68002B4D
:102B700003D07B685B68DB689847BD4605B090BDB5
:102B800080B584B000AF786039600023FB607B685B
:102B90005B682C229B5C1A1C01239340BB603A6843
:102BA000BB689A4203D23B68013BFB6002E0BB6812
:102BB000013BFB607B6819687B685B682C229A5C30
:102BC000FB68081C111C1A1CFFF78AFCBD4604B0E8
:102BD00080BDC04680B582B000AF021CFB1D1A70DC
:102BE000FB1D1B787F2B09D8064BFA1D1278111C90
:102BF0001F220A40012191400A1C1A60BD4602B002
:102C000080BDC04600E100E0B0B582B000AF021C5C
:102C10003960FB1D1A70FB1D1B787F2B27D82D4CAC
:102C2000FB1D1B785BB29B082A49FA1D127852B231
:102C30009208C03292005258F91D0978081C0321ED
:102C40000140C900081CFF218140C94311403A6876
:102C50009201FF200240F81D0078051C0320284047
:102C6000C00082400A43C0339B001A512EE01A4C28
:102C7000FB1D1B781A1C0F231340083B9908164AAA
:102C8000FB1D1B78181C0F230340083B9B080633D1
:102C90009B00D3185B68FA1D1278101C03220240B7
:102CA000D200101CFF228240D2431A403B689B0195
:102CB000FF200340F81D0078051C03202840C000B9
:102CC00083401A438B1D9B00E3185A60BD4602B037
:102CD000B0BDC04600E100E000ED00E080B582B08C
:102CE00000AF7860081C111CFB1C021C1A70BB1C76
:102CF0000A1C1A70FB1C1878FB1C1B787A680633B8
:102D00009B00D3185B68072293431A1CBB1C1B78DB
:102D10001A437968831D9B00CB185A60BD4602B0E8
:102D200080BDC04680B582B000AF786039607A68F7
:102D30003B68101C191C0122FFF77AF9BD4602B04E
:102D400080BDC04680B582B000AF78607B681B6CE8
:102D50000F22934302221A437B681A64BD4602B0D5
:102D600080BDC04680B582B000AFFB1D00221A7046
:102D7000374A384B101C03211A1CFEF705FA364A55
:102D8000364B101C191CFFF7CDFF334B181C0021CC
:102D90000022FFF7A3FF304B181C03210022FFF78E
:102DA0009DFF2D4B181C05210022FFF797FF2A4B92
:102DB000181C302104220123FFF732FB264B181C7C
:102DC000202104220023FFF759FB234B181CFFF797
:102DD000B9FF1F4A224B101C02211A1CFEF7D4F91E
:102DE0001D4B181C10210422FFF796FB1A4B181CD0
:102DF00010210222FFF7B0FB174B181C10210022F4
:102E0000FFF7CEFB144B181C13210022FFF7C8FB61
:102E10000B200321FFF7F8FEB0231B010B20191C28
:102E2000FEF72AFC0B20FFF7D5FE09200321FFF750
:102E3000EBFE90231B010920191CFEF71DFC092045
:102E4000FFF7C8FEFB1D1B78181CBD4602B080BDF5
:102E500000010440FC66001000020048AC6600104F
:102E6000B866001080B500AF024B181CFFF76CFD70
:102E7000BD4680BD5005002080B500AF024B181C38
:102E8000FFF7EAFDBD4680BD5005002080B584B047
:102E900000AFF8607A600A23FB180A1C1A800A2324
:102EA000FB181988FB687A6820329200D150BD4621
:102EB00004B080BD80B582B000AF786039607B68B7
:102EC0001A6C3B681A437B681A64BD4602B080BD29
:102ED00080B582B000AF786039607B681B6C3A685F
:102EE000D2431A407B681A64BD4602B080BDC0461A
:102EF00080B582B000AF78607B689B6BDBB27F22CD
:102F00009343DBB2181CBD4602B080BD80B582B0D1
:102F100000AF78607B681A6DC023DB011340181C7A
:102F2000BD4602B080BDC04680B582B000AF7860BB
:102F300039603B68802252029A407B689A66BD469F
:102F400002B080BD80B582B000AF786039607A6829
:102F500084235B00D2583B681A43111C7A6884238F
:102F60005B00D150BD4602B080BDC04680B582B086
:102F700000AF786039607A6884235B00D3583A6880
:102F8000D2431A40111C7A6884235B00D150BD469D
:102F900002B080BD80B584B000AFF8607A600A23CB
:102FA000FB180A1C1A800A23FB181988FB687A6828
:102FB00060329200D150BD4604B080BD80B582B071
:102FC00000AF78607A688C235B0080210902D150C1
:102FD000BD4602B080BDC04680B582B000AF78600B
:102FE0007A688A235B00D25880235B0113405A1E03
:102FF0009341DBB2181CBD4602B080BD80B582B0E3
:1030000000AF78607A688A235B00D25880231B0166
:1030100013405A1E9341DBB2181CBD4602B080BD5E
:1030200080B582B000AF786039607A6886235B0033
:10303000D3583A68D2431A40111C7A6886235B0041
:10304000D150BD4602B080BD80B582B000AF78607F
:103050007A688A235B00D358082213405A1E934192
:10306000DBB2181CBD4602B080BDC04680B582B040
:1030700000AF78600A1CFB1C1A707B681B6CC022B6
:1030800093431A1CFB1C1B789B01FF210B401A4326
:103090007B681A64BD4602B080BDC04690B585B05D
:1030A00000AF78607B685B685B680F22BC1898474C
:1030B000031C23700F23FB181B78181CBD4605B09A
:1030C00090BDC04690B587B000AFF860B9607A6037
:1030D0001723FB1801221A70FB685B6884229B5C33
:1030E000002B0BD11723FC18F968BA687B68081C01
:1030F000111C1A1C00F00AF8031C23701723FB187C
:103100001B78181CBD4607B090BDC04680B588B07E
:1031100000AFF860B9607A600123BB611F23FB1820
:1031200004221A70FB689B687B61FB685B688422E1
:103130009B5C002B64D1BB68002B5DD07B68002BAF
:103140005AD01F23FB1802221A707B6920229B5C35
:10315000DBB201225340DBB2002B4CD0FB689B68F2
:103160001B68082B01D90223BB617B69BA689A618D
:10317000BB69013B1A1C7B6893401A1C7B695A602F
:103180007B6900229A607B69202201219954FB68A7
:103190005B687C229B5C002B0DD0FB681B68181CB5
:1031A000FFF70CFFFB681A688023DB05101C191C55
:1031B000FFF7C8FE07E0FB681A6880239B01101C1C
:1031C000191CFFF777FEFB681A687B691B7FDBB26F
:1031D000101C191CFFF74AFF1F23FB1800221A704E
:1031E000FB681968FB685B6889229B5C081C191CDA
:1031F000FFF79AFE04E003E01F23FB1803221A7076
:103200001F23FB181B78181CBD4608B080BDC046A4
:1032100090B587B000AF786001233B617B689B6805
:10322000FB607B689B681B68082B01D902233B610C
:10323000FB689A68FB685B689A4200D39BE01623A0
:10324000FB1800221A807B685B687C229B5C002B49
:1032500053D045E0FB689A68FB685B689A423DD2B0
:10326000FB6821229B5CDBB2002B0CD07B681A68C8
:10327000FB681B7FDBB21C1C604B101C191C221C42
:10328000FFF788FE23E03B69022B09D1FB689A69AE
:10329000FB689B68D2181623FB1812881A8008E076
:1032A000FB689A69FB689B68D3181A781623FB1889
:1032B0001A807B681A68FB681B7FDBB21C1C162314
:1032C000FB181B88101C191C221CFFF763FEFB68EF
:1032D0009A683B69D218FB689A6001E0C04689E0B1
:1032E0007B681B68181CFFF777FE031C1A1C012360
:1032F0005340DBB2002BADD17CE0FB6821229B5C0C
:10330000DBB2002B0CD07B681A68FB681B7FDBB23A
:103310001C1C3A4B101C191C221CFFF7B7FD23E0A4
:103320003B69022B09D1FB689A69FB689B68D2183C
:103330001623FB1812881A8008E0FB689A69FB685C
:103340009B68D3181A781623FB181A807B681A68B2
:10335000FB681B7FDBB21C1C1623FB181B88101C90
:10336000191C221CFFF792FDFB689A683B69D21872
:10337000FB689A603EE07B681B68181CFFF73EFE06
:10338000031E37D07B685B687C229B5C002B08D0D7
:103390007B681A688023DB05101C191CFFF7E6FD0B
:1033A00007E07B681A6880239B01101C191CFFF73B
:1033B0008FFDC0467B681B68181CFFF799FD031E34
:1033C000802BF7D0FB68202200219954FB68002253
:1033D0009A617B685B681B6F002B0BD0FB68DB7FFF
:1033E000DBB201225340DBB2002B03D07B685B6869
:1033F0001B6F9847BD4607B090BDC046FFFF000059
:1034000090B587B000AF786001237B617B689B68D3
:103410003B610E23FB1800221A807B689B681B68A7
:10342000082B01D902237B617B685B687D229B5C52
:10343000002B20D07A687B69101C191C00F0C4F89E
:103440003B69DA683B691B69D21A7B685B687D213E
:103450005B5C013B012199400B1C9A4200D9B0E012
:103460003B69DA683B691B69D31A7A68101C191C1E
:1034700000F016F9A5E07B681B68181CFFF746FDF5
:10348000021C80239B0113402ED03B691A693B69C3
:10349000DB689A4228D27B681B680E22BC18181C75
:1034A000FEF770FD031C23803B695A693B691B6969
:1034B000D3180E22BA181288D2B21A707B69022B66
:1034C0000CD13B695A693B691B690133D3180E2241
:1034D000BA181288120A92B2D2B21A703B691A69EB
:1034E0007B69D2183B691A617B681B68181CFFF75F
:1034F0000DFD021C8023DB0113402ED03B691A69AD
:103500003B69DB689A4228D27B681B680E22BC1894
:10351000181CFEF737FD031C23803B695A693B6981
:103520001B69D3180E22BA181288D2B21A707B699E
:10353000022B0CD13B695A693B691B690133D318D3
:103540000E22BA181288120A92B2D2B21A703B69CD
:103550001A697B69D2183B691A613B691A693B6930
:10356000DB689A422DD17B685B687D229B5C002BD7
:1035700008D07B681A68C023DB05101C191CFFF7F4
:103580004FFD07E07B681A68C0231B02101C191C42
:10359000FEF718FD3B690022DA773B692122002102
:1035A00099543B692222012199543B6900225A61B6
:1035B0007B685B685B6F002B03D07B685B685B6F2D
:1035C0009847BD4607B090BD90B585B000AF786014
:1035D00039607B689B68FB600A23FB1800221A8015
:1035E0004EE0FB681A69FB68DB689A4228D27B6868
:1035F0001B680A22BC18181CFEF7C4FC031C23809D
:10360000FB685A69FB681B69D3180A22BA1812882A
:10361000D2B21A703B68022B0CD1FB685A69FB6866
:103620001B690133D3180A22BA181288120A92B2FF
:10363000D2B21A70FB681A693B68D218FB681A612B
:10364000FB681A69FB68DB689A4219D1FB680022A3
:10365000DA77FB682122002199547B681A68C0231D
:10366000DB05101C191CFFF7DBFC7B685B685B6FDC
:10367000002B04D07B685B685B6F98470CE00BE025
:103680007B681B68181CFFF7DFFC031C1A1C012356
:103690005340DBB2002BA4D1BD4605B090BDC0465F
:1036A00080B584B000AF786039607B685B687D224C
:1036B0009B5C002B29D03B68002B26D07B685B6885
:1036C0007D229B5C013B01229A40131CBB607B68FE
:1036D0009B681B68082B02D93B685B083B603A6813
:1036E000BB689A4203D83B68013BFB6001E0BB68C2
:1036F000FB607B6819687B685B687D229A5CFB686D
:10370000081C111C1A1CFEF7EBFEBD4604B080BD60
:1037100080B582B000AF021CFB1D1A70FB1D1B7828
:103720007F2B09D8064BFA1D1278111C1F220A4064
:10373000012191400A1C1A60BD4602B080BDC046FE
:1037400000E100E0B0B582B000AF021C3960FB1DA3
:103750001A70FB1D1B787F2B27D82D4CFB1D1B7867
:103760005BB29B082A49FA1D127852B29208C03205
:1037700092005258F91D0978081C03210140C90024
:10378000081CFF218140C94311403A689201FF2083
:103790000240F81D0078051C03202840C00082402C
:1037A0000A43C0339B001A512EE01A4CFB1D1B78B4
:1037B0001A1C0F231340083B9908164AFB1D1B785F
:1037C000181C0F230340083B9B0806339B00D318AB
:1037D0005B68FA1D1278101C03220240D200101CF4
:1037E000FF228240D2431A403B689B01FF200340E6
:1037F000F81D0078051C03202840C00083401A43B0
:103800008B1D9B00E3185A60BD4602B0B0BDC04698
:1038100000E100E000ED00E080B582B000AF78602C
:10382000081C111CFB1C021C1A70BB1C0A1C1A7001
:10383000FB1C1878FB1C1B787A6806339B00D31896
:103840005B68072293431A1CBB1C1B781A437968D8
:10385000831D9B00CB185A60BD4602B080BDC04698
:1038600080B582B000AF78600A1CFB1C1A707B68C0
:103870005B6B064A1A40FB1C1B78013B1B061A4374
:103880007B685A63BD4602B080BDC046FFFFFFF0B3
:1038900080B582B000AF78600A1CFB1C1A707B6890
:1038A0005B6B064A1A40FB1C1B78013B1B041A4346
:1038B0007B685A63BD4602B080BDC046FFFFC0FFB3
:1038C00080B584B000AFF860B9607A60FB685B696E
:1038D000054A1A40BB681A437B681A43FB685A6161
:1038E000BD4604B080BDC046FFFFFF2F80B582B04B
:1038F00000AF78600A1CFB1C1A707B681B6C0F22DF
:1039000093431A1CFB1C1B781A437B681A64BD4640
:1039100002B080BD80B582B000AF786039607A684F
:103920003B68101C191C0122FEF7CCFABD4602B000
:1039300080BDC04680B582B000AF78607B68181C3F
:103940000121FFF7D3FFBD4602B080BD80B582B034
:1039500000AF78607B685B6B01221A437B685A6317
:10396000BD4602B080BDC04680B582B000AF786071
:1039700039607B685B69074A1A403B68013B9B02E0
:103980001343802252001A437B685A61BD4602B03D
:1039900080BDC046FF80FFFF80B584B000AFF860F7
:1039A000B9607A60F968BA687B68081C111C1A1C37
:1039B000FFF786FFBD4604B080BDC04680B582B02B
:1039C00000AF78600A1CFB1C1A707A68FB1C1B781D
:1039D000101C191CFFF744FFBD4602B080BDC04655
:1039E00080B582B000AF78600A1CFB1C1A707A6840
:1039F000FB1C1B78101C191CFFF74AFFBD4602B0C8
:103A000080BDC04680B582B000AF7860081C111C34
:103A1000FB1C021C1A70BB1C0A1C1A70FB1C1878B9
:103A2000FB1C1B787A6806339B00D3185B68502216
:103A3000934310221A437968831D9B00CB185A6068
:103A40007968FB1C1A78BB1C1B78081C111C1A1CFB
:103A5000FFF7E2FEBD4602B080BDC04680B582B031
:103A600000AFFB1D00221A709023DA05594B101C81
:103A7000191CFFF74FFF9023DB05181CFFF766FFAB
:103A80009023DB05181C0821FFF798FF9023DB0526
:103A9000181C4021FFF7A4FF9023DB05181C002110
:103AA0000022FFF779FF9023DB05181C0221FFF7A6
:103AB0005BFF494A494B101C04211A1CFDF764FBAB
:103AC0009023DB05181C00210622FFF79BFF9023A3
:103AD000DB05181C03210522FFF794FF9023DB056B
:103AE000181C04210022FFF78DFF9023DB05181C12
:103AF00005210422FFF786FF9023DB05181CFFF742
:103B000019FF354A364B101C05211A1CFDF73CFBEA
:103B1000314A344B101C06211A1CFDF735FB324A82
:103B2000324B101C0C211A1CFDF72EFB9023DA05DA
:103B300080231B03101C191CFEF70EFA9023DB05D3
:103B4000181C10210422FEF7E7FC9023DB05181C4B
:103B5000102104220123FEF763FC9023DB05181CCF
:103B600010210322FEF7F8FC9023DB05181C00212E
:103B700004220023FEF782FC9023DB05181C102191
:103B80000122FEF70DFD9023DB05181C13210122F5
:103B9000FEF706FD0C200321FFF7D4FDC0231B0117
:103BA0000C20191CFDF768FD0C20FFF7B1FD0A2061
:103BB0000221FFF7C7FDA0231B010A20191CFDF7F6
:103BC0005BFD0A20FFF7A4FDFB1D1B78181CBD46FA
:103BD00002B080BD6C050020000104406C0600208E
:103BE0005C0500201C6700100000044034670010D2
:103BF00080B500AF024B181CFFF70AFBBD4680BD25
:103C00009C05002080B500AF024B181CFFF7F8FBA5
:103C1000BD4680BD9C05002080B584B000AF7860B3
:103C20000F23FB1800221A707B685B7A0122534035
:103C3000DBB2002B11D07B6859687B681A7A7B68ED
:103C40001B68081C111C1A1CFDF706FF7B6801226B
:103C50005A720F23FB1800221A700F23FB181B78CF
:103C6000181CBD4604B080BD80B584B000AFF860BC
:103C7000B9607A60FB68043BFB60FB6880225204F9
:103C80001A60FB68043BFB60BA68FB681A60FB685B
:103C9000043BFB60084AFB681A60FB68143BFB604E
:103CA0007A68FB681A60FB68203BFB60FB68181CA5
:103CB000BD4604B080BDC046BD3C001080B582B09A
:103CC00000AF00237B60074B1B68013301D072B645
:103CD000FEE772B6C0467B68002BFCD0BD4602B042
:103CE00080BDC046B405002080B500AFBD4680BD94
:103CF0000B4A13681868203080F30988022080F38B
:103D00001488BFF36F8F3FBCAE4608BC04BC62B6DC
:103D10001847C046C046C046C046C046C046C0461A
:103D20007C060020C046C046C046C046C046C046CD
:103D300080B500AF0E4B0E4A1268FF2109040A43FA
:103D40001A600B4B0A4A1268FF2109060A431A60DF
:103D500000F096F8074B00221A60FFF7C9FF01F048
:103D600067F9FFF7ABFF0023181CBD4680BDC046B6
:103D700020ED00E0B405002080B500AF044B8022A8
:103D800052051A60BFF34F8FBFF36F8FBD4680BDE2
:103D900004ED00E080B500AF72B6054B1B685A1CFD
:103DA000034B1A60BFF34F8FBFF36F8FBD4680BDCB
:103DB000B405002080B500AF084B1B68002B01D173
:103DC00072B6FEE7054B1B685A1E044B1A60034B84
:103DD0001B68002B00D162B6BD4680BDB405002033
:103DE000EFF3108072B67047181CC04680F310883D
:103DF0007047C04600000000000000000000000006
:103E0000EFF309800E4B1A6820381060F0C044466A
:103E10004D4656465F46F0C008B572B601F008F947
:103E200062B60CBC116808681030F0C8A046A946FC
:103E3000B246BB4680F309882038F0C81847C04610
:103E40007C060020C046C046C046C046C046C046AC
:103E500080B582B000AFFFF7C3FF031C7B6001F0A9
:103E600037F8031E03D0054B802252051A607B6889
:103E7000181CFFF7BBFFBD4602B080BD04ED00E09B
:103E800098B500AF0A4B00221A600A4B00221A6054
:103E9000094C0A4B1B68181CFA239900FDF788FF90
:103EA000031C013B2360024B07221A60BD4698BDEC
:103EB00010E000E018E000E014E000E0FC3F00202B
:103EC00080B584B000AF786000F05CFF7B68181CA0
:103ED00002F016FB031CFB6000F060FFFB68181C7F
:103EE000BD4604B080BDC04680B582B000AF7860EA
:103EF0007B68002B07D000F045FF7B68181C02F0A0
:103F000009FB00F04BFFBD4602B080BD80B582B01A
:103F100000AF78607B6808331A1C7B685A607B6846
:103F2000012252429A607B6808331A1C7B68DA606F
:103F30007B6808331A1C7B681A617B6800221A6050
:103F4000BD4602B080BDC04680B582B000AF78608B
:103F50007B6800221A61BD4602B080BD80B584B086
:103F600000AF786039607B685B68FB603B68FA682B
:103F70005A60FB689A683B689A60FB689B683A687D
:103F80005A60FB683A689A603B687A681A617B6895
:103F90001B685A1C7B681A60BD4604B080BDC046D1
:103FA00080B584B000AF786039603B681B68BB6047
:103FB000BB68013303D17B681B69FB600CE07B6845
:103FC0000833FB6002E0FB685B68FB60FB685B68D2
:103FD0001A68BB689A42F6D9FB685A683B685A600F
:103FE0003B685B683A689A603B68FA689A60FB686D
:103FF0003A685A603B687A681A617B681B685A1C89
:104000007B681A60BD4604B080BDC04680B584B0F0
:1040100000AF78607B681B69FB607B685B687A68CF
:1040200092689A607B689B687A6852685A60FB68FD
:104030005A687B689A4203D17B689A68FB685A6029
:104040007B6800221A61FB681B685A1EFB681A60B5
:10405000FB681B68181CBD4604B080BD80B584B0E9
:1040600000AF786039607B68FB60FB68002B01D192
:1040700072B6FEE7FFF78EFEFB681A68FB68D96B25
:10408000FB681B6C4B43D218FB689A60FB680022EC
:104090009A63FB681A68FB685A60FB681A68FB68D9
:1040A000DB6B591EFB681B6C4B43D218FB68DA6054
:1040B000FB684422FF219954FB684522FF21995453
:1040C0003B68002B0DD1FB681B69002B13D0FB68EC
:1040D0001033181C01F03CF8031E0CD0FFF74CFE07
:1040E00009E0FB681033181CFFF710FFFB6824334E
:1040F000181CFFF70BFFFFF75DFE0123181CBD46E0
:1041000004B080BD90B58BB002AFF860B960FB1D04
:104110001A70FB68002B01D172B6FEE7FB68BA6823
:104120005343FB61BB68002B08D0F869B968FDF701
:104130003FFE031C1A1EFB689A4201D1012300E0D6
:104140000023002B01D172B6FEE7FB6954331A1E1F
:10415000FB699A4201D872B6FEE7FB695433181C1A
:10416000FFF7AEFE031CBB61BB69002B0ED0BB6921
:104170007B617B6954337B61F868B9687A69FB1DA0
:104180001C78BB690093231C00F006F8BB69181C5F
:10419000BD4609B090BDC04680B584B000AFF860A0
:1041A000B9607A601A1CFB1C1A70BB68002B03D123
:1041B000BB69BA691A6002E0BB697A681A60BB69B8
:1041C000FA68DA63BB69BA681A64BB69181C012112
:1041D000FFF744FFBB69FA1C502112785A54BB699F
:1041E00000229A64BD4604B080BDC04680B58AB046
:1041F00000AFF860B9607A603B6000237B62FB68C7
:104200003B623B6A002B01D172B6FEE7BB68002B14
:1042100003D13B6A1B6C002B01D1012300E000237A
:10422000002B01D172B6FEE73B68022B03D13B6A3B
:10423000DB6B012B01D1012300E00023002B01D116
:1042400072B6FEE701F00AF9031E02D17B68002B6B
:1042500001D1012300E00023002B01D172B6FEE75B
:10426000FFF798FD3B6A9A6B3B6ADB6B9A4202D37D
:104270003B68022B38D13B6A9B6BFB61396ABA6899
:104280003B68081C111C1A1C00F0E6F9031CBB61FA
:104290003B6A9B6C002B10D03B68022B04D1FB695E
:1042A000002B01D0C0461BE03B6A181C00F064FBE9
:1042B000031E15D0FFF760FD12E03B6A5B6A002B1E
:1042C00009D03B6A2433181C00F042FF031E07D0BC
:1042D000FFF752FD04E0BB69002B01D0FFF74CFD56
:1042E000FFF768FD012360E07B68002B03D1FFF737
:1042F00061FD002359E07B6A002B06D11023FB18D7
:10430000181C00F081FF01237B62FFF753FD00F0D2
:1043100039FDFFF73FFD3B6A44229B5CDBB25BB299
:10432000013303D13B6A4422002199543B6A452260
:104330009B5CDBB25BB2013303D13B6A45220021B7
:104340009954FFF737FD1023FA183B1D101C191C58
:1043500000F06EFF031E1FD13B6A181C00F096FA96
:10436000031E12D03B6A10331A1C7B68101C191CE8
:1043700000F0AEFE3B6A181C00F006FA00F00EFDDD
:10438000031E11D1FFF7F8FC0EE03B6A181C00F089
:10439000FBF900F003FD63E73B6A181C00F0F4F939
:1043A00000F0FCFC002300E05AE7181CBD460AB0F0
:1043B00080BDC04680B58AB000AFF860B9607A6051
:1043C0003B60FB683B623B6A002B01D172B6FEE7A3
:1043D000BB68002B03D13B6A1B6C002B01D101236E
:1043E00000E00023002B01D172B6FEE73B68022BF0
:1043F00003D13B6ADB6B012B01D1012300E00023D9
:10440000002B01D172B6FEE7FFF7EAFC031CFB614B
:104410003B6A9A6B3B6ADB6B9A4202D33B68022B86
:1044200055D11B23FB183A6A4521525C1A703B6A2E
:104430009B6B7B61396ABA683B68081C111C1A1CAB
:1044400000F00AF91B23FB181B785BB201332AD159
:104450003B6A9B6C002B14D03B68022B04D17B6918
:10446000002B01D0C0462FE03B6A181C00F084FAF4
:10447000031E29D07B68002B26D07B6801221A609E
:1044800022E03B6A5B6A002B1ED03B6A2433181C77
:1044900000F05EFE031E17D07B68002B14D07B68F3
:1044A00001221A6010E01B23FB181B785BB27F2BE4
:1044B00001D172B6FEE71B23FB181B780133DBB278
:1044C000D9B23B6A4522995401237B6201E0002363
:1044D0007B62FB69181CFFF789FC7B6A181CBD46D0
:1044E0000AB080BD80B58AB000AFF860B9607A606C
:1044F00000237B62FB683B623B6A002B01D172B6F2
:10450000FEE7BB68002B03D13B6A1B6C002B01D17B
:10451000012300E00023002B01D172B6FEE700F07A
:104520009DFF031E02D17B68002B01D1012300E017
:104530000023002B01D172B6FEE7FFF72BFC3B6A8C
:104540009B6BFB61FB69002B1AD03A6ABB68101C9D
:10455000191C00F0F1F8FB695A1E3B6A9A633B6A2A
:104560001B69002B08D03B6A1033181C00F0F0FDCB
:10457000031E01D0FFF700FCFFF71CFC012366E0DF
:104580007B68002B03D1FFF715FC00235FE07B6AFB
:10459000002B06D11423FB18181C00F035FE012354
:1045A0007B62FFF707FC00F0EDFBFFF7F3FB3B6AD4
:1045B00044229B5CDBB25BB2013303D13B6A4422F1
:1045C000002199543B6A45229B5CDBB25BB201330C
:1045D00003D13B6A452200219954FFF7EBFB1423DA
:1045E000FA183B1D101C191C00F022FE031E1FD1DF
:1045F0003B6A181C00F034F9031E12D03B6A2433C6
:104600001A1C7B68101C191C00F062FD3B6A181C08
:1046100000F0BAF800F0C2FB031E17D1FFF7ACFBA5
:1046200014E03B6A181C00F0AFF800F0B7FB84E719
:104630003B6A181C00F0A8F800F0B0FB3B6A181C9D
:1046400000F00EF9031E01D0002300E075E7181CEE
:10465000BD460AB080BDC04680B586B000AFF860E8
:10466000B9607A6000237B61FB689B6B3B61FB68F0
:104670001B6C002B0ED1FB681B68002B52D1FB6812
:104680009B68181C00F006FF031C7B61FB6800227E
:104690009A6047E07B68002B1BD1FB685968FB6878
:1046A0001B6CBA68081C111C1A1C01F03DFFFB684A
:1046B0005A68FB681B6CD218FB685A60FB685A6822
:1046C000FB689B689A422DD3FB681A68FB685A60A6
:1046D00028E0FB68D968FB681B6CBA68081C111CD1
:1046E0001A1C01F021FFFB68DA68FB681B6C5B4257
:1046F000D218FB68DA60FB68DA68FB681B689A42CC
:1047000007D2FB689A68FB681B6C5B42D218FB6897
:10471000DA607B68022B05D13B69002B02D03B6934
:10472000013B3B613B695A1CFB689A637B69181C1F
:10473000BD4606B080BDC04680B582B000AF78608F
:1047400039607B681B6C002B1AD07B68DA687B6849
:104750001B6CD2187B68DA607B68DA687B689B68C0
:104760009A4203D37B681A687B68DA607B68DA68F0
:104770007B681B6C3968081C111C1A1C01F0D4FEE4
:10478000BD4602B080BDC04680B584B000AF786041
:10479000FFF700FB0F23FB187A684521525C1A7063
:1047A00023E07B689B6C002B08D07B68181C00F012
:1047B000E3F8031E11D000F09FFD0EE07B685B6AFA
:1047C000002B09D07B682433181C00F0C1FC031EA9
:1047D00003D000F091FD00E00DE00F23FB181B78E3
:1047E000013BDAB20F23FB181A700F23FB181B785A
:1047F0005BB2002BD5DC7B684522FF219954FFF783
:10480000D9FAFFF7C7FA0E23FB187A684421525CE5
:104810001A7016E07B681B69002B11D07B6810337F
:10482000181C00F095FC031E01D000F065FD0E235E
:10483000FB181B78013BDAB20E23FB181A7000E05C
:1048400005E00E23FB181B785BB2002BE2DC7B68D3
:104850004422FF219954FFF7ADFABD4604B080BD54
:1048600080B584B000AF7860FFF794FA7B689B6BEB
:10487000002B02D10123FB6001E00023FB60FFF766
:1048800099FAFB68181CBD4604B080BD80B584B0A1
:1048900000AF7860FFF77EFA7B689A6B7B68DB6B12
:1048A0009A4202D10123FB6001E00023FB60FFF785
:1048B00081FAFB68181CBD4604B080BD80B584B089
:1048C00000AF786039600023FB6014E00D4BFA689C
:1048D000D200D358002B0BD10A4BFA68D2003968AA
:1048E000D150084AFB68DB00D3187A685A6005E0AB
:1048F000FB680133FB60FB68072BE7D9BD4604B0BA
:1049000080BDC046C807002080B586B000AFF86003
:10491000B9607A60FB687B61FFF73CFA7B694422EF
:104920009B5CDBB25BB2013303D17B694422002183
:1049300099547B6945229B5CDBB25BB2013303D1A6
:104940007B69452200219954FFF734FA7B699B6B00
:10495000002B09D17B692433191CBA687B68081CB9
:10496000111C1A1C00F0D0FB7B69181CFFF70CFF10
:10497000BD4606B080BDC04680B586B000AF786049
:104980007B689B6C3B6100237B613B69002B01D101
:1049900072B6FEE73B699A6B3B69DB6B9A4201D3C7
:1049A00072B6FEE73B699A6B3B69DB6B9A4234D285
:1049B0000F23FB183A694521525C1A703A693B1D76
:1049C000101C191C0022FFF747FE031C7B610F23FC
:1049D000FB181B785BB201330DD13B695B6A002B7E
:1049E0001BD03B692433181C00F0B2FB031E14D00B
:1049F00001237B6111E00F23FB181B785BB27F2B37
:104A000001D172B6FEE70F23FB181B780133DBB22E
:104A1000D9B23B6945229954FFE77B69181CBD4612
:104A200006B080BD90B58DB004AFF860B9603B6052
:104A3000BB1D1A80BB1D1B889B00181CFFF740FA8A
:104A4000031C7B617B69002B10D07020FFF738FAC4
:104A5000031CFB61FB69002B03D0FB697A691A63B5
:104A600006E07B69181CFFF73FFA01E00023FB61B9
:104A7000FB69002B16D0BB1D1A88F868B9683C6822
:104A80003B6B00937B6B0193FB69029300230393C1
:104A9000231C00F00FF8FB69181C00F0A7F8012395
:104AA000BB6102E001235B42BB61BB69181CBD46D0
:104AB00009B090BD80B586B000AFF860B9607A608B
:104AC0003B60BB6A1A6B7B689B00101CA5211A1CFB
:104AD00001F033FDBB6A1A6B7B6843498C46634423
:104AE0009B00D3183B613B69072293433B613B69C1
:104AF0000722134001D072B6FEE7BB68002B1FD01F
:104B000000237B6114E0BA687B69D3181878BA6A0D
:104B100030217B69D3185B18021C1A71BA687B6953
:104B2000D3181B78002B00D105E07B6901337B6132
:104B30007B690F2BE7D9BB6A43220021995403E01C
:104B4000BB6A3422002199543B6A042B01D9042307
:104B50003B62BB6A3A6ADA62BB6A3A6ADA64BB6A87
:104B600000221A65BB6A0433181CFFF7EDF9BB6A13
:104B70001833181CFFF7E8F9BB6ABA6A1A613B6A76
:104B80000522D21ABB6A9A61BB6ABA6A5A62BB6AC8
:104B90005433181C0021142201F0CFFCBB6A683387
:104BA000181C0021042201F0C8FCBB6A6C33181CDD
:104BB0000021012201F0C1FCBB6A6D220021995441
:104BC0003969FA683B68081C111C1A1CFFF74CF87D
:104BD000021CBB6A1A607B6A002B02D07B6ABA6A2D
:104BE0001A60BD4606B080BDFFFFFF3F80B582B0B2
:104BF00000AF7860FFF7CEF8294B1B685A1C284B92
:104C00001A60284B1B68002B09D1264B7A681A6062
:104C1000234B1B68012B10D100F088FB0DE0224BC9
:104C20001B68002B09D11F4B1B68DA6A7B68DB6AA3
:104C30009A4202D81B4B7A681A601C4B1B685A1C9C
:104C40001A4B1A60194B1A687B685A647B68DA6AD7
:104C5000174B1B689A4203D97B68DA6A144B1A60B7
:104C60007B68DA6A131C9B009B189B00114A9A18F8
:104C70007B680433101C191CFFF770F9FFF79AF8D2
:104C8000094B1B68002B08D0064B1B68DA6A7B684F
:104C9000DB6A9A4201D2FFF76FF8BD4602B080BDD1
:104CA000540700207C0600206007002070070020C9
:104CB0005C0700208006002080B584B000AF7860DB
:104CC0000023FB607B68002B10D00C4B1B68002B73
:104CD00001D072B6FEE700F055F87B68181C002181
:104CE00000F034FC00F05AF8031CFB60FB68002B5A
:104CF00001D1FFF741F8BD4604B080BD7C0700201C
:104D000080B584B002AF1849184A00230093184BAD
:104D10000193081C111C3C220023FFF783FE031C97
:104D20007B607B68012B03D100F068FC031C7B6077
:104D30007B68012B0DD172B60E4B012252421A60D4
:104D40000D4B01221A600D4B00221A60FEF7F0FF96
:104D500004E07B68013301D172B6FEE7084B1B68A3
:104D6000BD4602B080BDC0460D530010D067001094
:104D700078070020740700206007002058070020F3
:104D8000B805002080B500AF034B1B685A1C024BCE
:104D90001A60BD4680BDC0467C07002080B584B047
:104DA00000AF0023FB600023BB603A4B1B68002B65
:104DB00001D172B6FEE7FEF7EDFF364B1B685A1EB7
:104DC000344B1A60334B1B68002B5BD1324B1B6892
:104DD000002B57D02FE0314BDB68DB68FB60FB68B2
:104DE0001833181CFFF712F9FB680433181CFFF77F
:104DF0000DF9FB68DA6A2A4B1B689A4203D9FB68F3
:104E0000DA6A274B1A60FB68DA6A131C9B009B184E
:104E10009B00244A9A18FB680433101C191CFFF7E6
:104E20009DF8FB68DA6A204B1B68DB6A9A4202D362
:104E30001E4B01221A60194B1B68002BCBD1FB685B
:104E4000002B01D000F0F2FA194B1B687B607B68E5
:104E5000002B0FD000F03CF8031E02D0134B0122B0
:104E60001A607B68013B7B607B68002BF2D1104BA2
:104E700000221A600D4B1B68002B03D00123BB607E
:104E8000FEF77AFFFEF796FFBB68181CBD4604B01C
:104E900080BDC0467C070020540700201407002076
:104EA0005C070020800600207C06002068070020A8
:104EB0006407002080B582B000AF044B1B687B60A4
:104EC0007B68181CBD4602B080BDC0465807002054
:104ED00080B586B000AF00237B614A4B1B68002B76
:104EE00000D084E0484B1B6801333B61464B3A6974
:104EF0001A603B69002B17D1444B1B681B68002BC1
:104F000001D072B6FEE7414B1B68FB60404B1A684C
:104F10003E4B1A603E4BFA681A603E4B1B685A1CA7
:104F20003C4B1A6000F082FA3B4B1B683A699A428C
:104F300049D3364B1B681B68002B04D1364B01222A
:104F400052421A603FE0314B1B68DB68DB68BB6094
:104F5000BB685B687B603A697B689A4203D22E4BE0
:104F60007A681A602FE0BB680433181CFFF74EF80C
:104F7000BB689B6A002B04D0BB681833181CFFF772
:104F800045F8BB68DA6A254B1B689A4203D9BB68AF
:104F9000DA6A224B1A60BB68DA6A131C9B009B1802
:104FA0009B001F4A9A18BB680433101C191CFEF79B
:104FB000D5FFBB68DA6A1B4B1B68DB6A9A4201D3D8
:104FC00001237B61B5E7174B1B68DA6A1449131C90
:104FD0009B009B189B005B58012B01D901237B612F
:104FE000114B1B68002B01D001237B6104E00F4BA8
:104FF0001B685A1C0D4B1A607B69181CBD4606B015
:1050000080BDC0467C070020580700200C07002008
:10501000100700206C070020740700205C070020A8
:10502000800600207C06002068070020640700201E
:1050300080B582B000AF214B1B68002B03D0204B02
:1050400001221A6037E01E4B00221A601D4B1B68BC
:105050007B6007E07B68002B01D172B6FEE77B68BE
:10506000013B7B6018497A68131C9B009B189B00CE
:105070005B58002BEED07A68131C9B009B189B009A
:10508000114A9B183B603B685B685A683B685A60F2
:105090003B685A683B6808339A4204D13B685B68B6
:1050A0005A683B685A603B685B68DA68074B1A606D
:1050B000044B7A681A60BD4602B080BD7C070020B0
:1050C000680700205C070020800600207C06002086
:1050D00080B582B000AF786039607B68002B01D169
:1050E00072B6FEE7074B1B6818337A68101C191C50
:1050F000FEF756FF3B68181C012100F027FABD4659
:1051000002B080BD7C06002080B584B000AFF8609E
:10511000B9607A60FB68002B01D172B6FEE70B4BD9
:105120001B681833FA68101C191CFEF717FF7B6800
:10513000002B02D001235B42BB60BA687B68101C65
:10514000191C00F003FABD4604B080BD7C060020A7
:1051500080B584B000AF78607B68DB68DB68BB60DB
:10516000BB68002B01D172B6FEE7BB681833181C70
:10517000FEF74CFF1E4B1B68002B1DD1BB68043390
:10518000181CFEF743FFBB68DA6A1A4B1B689A4289
:1051900003D9BB68DA6A174B1A60BB68DA6A131C5A
:1051A0009B009B189B00144A9A18BB680433101C80
:1051B000191CFEF7D3FE06E0BB6818330F4A101C1B
:1051C000191CFEF7CBFEBB68DA6A0D4B1B68DB6A65
:1051D0009A4205D90123FB600A4B01221A6001E0C3
:1051E0000023FB60FB68181CBD4604B080BDC046B0
:1051F0007C0700205C0700208006002014070020A8
:105200007C0600206807002080B582B000AF78607F
:10521000054B1A687B681A60044B1A687B685A60F1
:10522000BD4602B080BDC0466C0700205807002074
:1052300080B586B000AF786039607B68002B01D103
:1052400072B6FEE73B68002B01D172B6FEE7FEF7AF
:10525000A1FD264B1B683B617B685B683A69D31AEA
:10526000FB60234B1B686D229B5C002B07D0204BFF
:105270001B686D220021995401237B612EE03B685D
:105280001B68013302D100237B6127E07B681A6829
:10529000184B1B689A420AD07B685A683B699A424D
:1052A00005D801237B613B6800221A6016E03B6849
:1052B0001A68FB689A420CD93B681A68FB68D21AD4
:1052C0003B681A607B68181CFFF79EFF00237B6118
:1052D00004E03B6800221A6001237B61FEF76AFD4F
:1052E0007B69181CBD4606B080BDC046580700202B
:1052F0007C0600206C07002080B500AF024B012225
:105300001A60BD4680BDC0466807002080B582B0E7
:1053100000AF786000F04EF8034B1B68012B01D9F9
:10532000FEF72AFDF6E7C0468006002080B582B071
:1053300000AF00237B600CE07A68131C9B009B1875
:105340009B00144A9B18181CFEF7E0FD7B68013394
:105350007B607B68042BEFD90F4B181CFEF7D6FD42
:105360000E4B181CFEF7D2FD0D4B181CFEF7CEFDA0
:105370000C4B181CFEF7CAFD0B4B181CFEF7C6FDA4
:105380000A4B054A1A600A4B044A1A60BD4602B02D
:1053900080BDC04680060020E4060020F8060020FC
:1053A0001407002028070020400700200C070020D9
:1053B0001007002080B582B000AF1AE0FEF7EAFCCB
:1053C0000F4BDB68DB687B607B680433181CFEF7DF
:1053D0001DFE0C4B1B685A1E0A4B1A600A4B1B68B9
:1053E0005A1E094B1A60FEF7E5FC7B68181C00F09A
:1053F0000DF8054B1B68002BE0D1BD4602B080BD07
:1054000028070020540700203C07002080B582B008
:1054100000AF78607B681B6B181CFEF765FD7B682E
:10542000181CFEF761FDBD4602B080BD80B500AF1F
:10543000084B1B681B68002B04D1074B012252420A
:105440001A6005E0034B1B68DB681A68024B1A60A0
:10545000BD4680BD0C0700207407002080B582B0D7
:1054600000AF0A4B1B68002B02D101237B6008E0D0
:10547000074B1B68002B02D102237B6001E0002355
:105480007B607B68181CBD4602B080BD60070020B1
:105490007C07002080B584B000AF78607B68BB607B
:1054A0000023FB607B68002B44D0254B1B68BA6847
:1054B0009A4201D072B6FEE7BB681B6D002B01D18A
:1054C00072B6FEE7BB681B6D5A1EBB681A65BB68E7
:1054D000DA6ABB68DB6C9A422CD0BB681B6D002B70
:1054E00028D1BB680433181CFEF790FDBB68DA6C4A
:1054F000BB68DA62BB68DB6A0522D21ABB689A61B4
:10550000BB68DA6A0F4B1B689A4203D9BB68DA6A38
:105510000C4B1A60BB68DA6A131C9B009B189B003B
:10552000094A9A18BB680433101C191CFEF716FDB3
:105530000123FB60FB68181CBD4604B080BDC0465B
:105540007C0600205C0700208006002080B584B027
:1055500000AF78603960234B1B68FB60224B1B68EF
:105560006D2200219954204B1B680433181CFEF750
:105570004DFD7B6801330BD13B68002B08D01A4BE3
:105580001B680433194A101C191CFEF7E7FC26E0BF
:10559000FA687B68D318BB60134B1B68BA685A6003
:1055A000BA68FB689A4209D2114B1A680E4B1B6805
:1055B0000433101C191CFEF7F3FC10E00D4B1A68A5
:1055C000094B1B680433101C191CFEF7E9FC0A4B3D
:1055D0001B68BA689A4202D2074BBA681A60BD4685
:1055E00004B080BD580700207C0600204007002042
:1055F000100700200C0700207407002080B584B03D
:1056000002AF00237B6000F0C9FA0E4B1B68002B31
:105610000DD00D490D4A022300930D4B0193081C38
:10562000111C78220023FFF7FDF9031C7B607B68C7
:10563000002B01D172B6FEE77B68181CBD4602B094
:1056400080BDC046B007002089570010E8670010F1
:10565000B407002080B58AB000AFF860B9607A6006
:105660003B6000237B62FB68002B01D172B6FEE732
:10567000224B1B68002B3BD01423FB18BA681A601E
:105680001423FB187A685A601423FB18FA689A608E
:10569000BB68052B1FDCFFF7E1FE031E022B0DD1BB
:1056A000164B19681423FA183B6B081C111C1A1CA2
:1056B0000023FEF79BFD031C7B6219E00F4B1A6869
:1056C0001423FB18101C191C00220023FEF78EFD6A
:1056D000031C7B620CE0094B19681423FA183B6821
:1056E000081C111C1A1C0023FEF764FE031C7B62BD
:1056F0007B6A181CBD460AB080BDC046B0070020BA
:1057000080B586B002AF786039601E4B1B68DB68DD
:10571000DB68FB60FB680433181CFEF777FCFB6852
:1057200028229B5C1A1C042313401AD0FB689A6938
:105730007B68D118F8683A687B6800F0C3F8031EEC
:1057400018D0F9687A6800230093081C0021002310
:10575000FFF780FF031CBB60BB68002B0AD172B649
:10576000FEE7FB6828229B5C01229343D9B2FB68C9
:1057700028229954FB681B6AFA68101C9847BD469A
:1057800004B080BDA807002080B584B000AF786069
:105790000823FB18181C00F053F8031CFB60BB68BF
:1057A000FA68101C191C00F003F800F0CDF8EFE7C0
:1057B00080B584B000AF78603960FFF7E3FA082362
:1057C000FB18181C00F05EF8031CFB60BB68002B84
:1057D0002DD13B68002B0CD17A68FB689A4208D81F
:1057E000FFF7DCFA7A68FB68101C191CFFF788FFCA
:1057F0001FE03B68002B08D00F4B1B681B68002B79
:1058000001D1012300E000233B600C4B19687A684A
:10581000FB68D21A3B68081C111C1A1CFFF774F8AD
:10582000FFF7BCFA031E04D1FEF7A6FA01E0FFF76A
:10583000B5FABD4604B080BDAC070020B00700201B
:1058400080B584B000AF78600D4B1B681B68002BDF
:1058500001D1012200E000227B681A607B681B688E
:10586000002B05D1064B1B68DB681B68FB6001E061
:105870000023FB60FB68181CBD4604B080BDC04619
:10588000A807002080B584B000AF7860FFF712FB56
:10589000031CFB600A4B1B68FA689A4205D200F0B1
:1058A0001FF97B6801221A6002E07B6800221A60FF
:1058B000034BFA681A60FB68181CBD4604B080BD33
:1058C000B807002080B586B000AFF860B9607A6094
:1058D0003B6000237B61FB68BA685A60FB68FA682A
:1058E0001A61BA687B689A4212D87A683B68D21A01
:1058F000FB689B699A4202D301237B611BE0104B3A
:105900001A68FB680433101C191CFEF749FB12E0EF
:105910007A683B689A4206D2BA683B689A4202D3D8
:1059200001237B6107E0074B1A68FB680433101CF6
:10593000191CFEF735FB7B69181CBD4606B080BDFF
:10594000AC070020A807002080B58CB002AFB3E000
:105950000823FB181B68002B11DA0823FB180433FB
:105960007B627B6A002B01D172B6FEE77B6A1A6804
:105970007B6A59687B6A9B68081C191C904708233E
:10598000FB181B68002B00DA96E00823FB189B68C5
:105990003B623B6A5B69002B04D03B6A0433181CF2
:1059A000FEF734FB3B1D181CFFF76CFF031CFB616B
:1059B0000823FB181B68092B00D97CE09A00464B92
:1059C000D3181B689F463B6A28229B5C0122134325
:1059D000D9B23B6A282299540823FB185A683B6ABB
:1059E0009B69D1180823FB185B68386AFA69FFF7CE
:1059F00069FF031E20D03B6A1B6A3A6A101C984755
:105A00003B6A28229B5C1A1C0423134014D00823F1
:105A1000FB185A683B6A9B69D218396A00230093C5
:105A2000081C00210023FFF715FE031CBB61BB69A6
:105A3000002B01D172B6FEE73EE03B6A28229B5C58
:105A400001229343D9B23B6A2822995434E03B6A3D
:105A500028229B5C01221343D9B23B6A2822995425
:105A60000823FB185A683B6A9A613B6A9B69002BC2
:105A700001D172B6FEE73B6A9A69FB69D118386AB0
:105A8000FA69FB69FFF71EFF16E03B6A28229B5C60
:105A90001A1C0223134004D13B6A181CFEF724FA97
:105AA00008E03B6A28229B5C01229343D9B23B6AFF
:105AB0002822995400E0C046084B1A680823FB18B6
:105AC000101C191C0022FEF70DFD031E00D03FE73D
:105AD000BD460AB080BDC046F8670010B007002080
:105AE00080B588B002AF42E02A4B1B68DB681B68B8
:105AF0007B61284B1B68DB68DB683B613B690433D7
:105B0000181CFEF783FA3B691B6A3A69101C984718
:105B10003B6928229B5C1A1C0423134027D03B6955
:105B20009A697B69D318FB60FA687B699A420ED93F
:105B30003B69FA685A603B693A691A61154B1A6801
:105B40003B690433101C191CFEF72AFA0FE039696F
:105B50007A6900230093081C00210023FFF77AFDD7
:105B6000031CBB60BB68002B01D172B6FEE7094B7A
:105B70001B681B68002BB7D1064B1B687B60064B6C
:105B80001A68044B1A60044B7A681A60BD4606B066
:105B900080BDC046A8070020AC07002080B500AF3C
:105BA000FEF7F8F8144B1B68002B20D1134B181C80
:105BB000FEF7ACF9124B181CFEF7A8F9114B0F4A6F
:105BC0001A60114B0E4A1A60052010210022FEF7C0
:105BD00099FA021C084B1A60074B1B68002B06D071
:105BE000054B1A68094B101C191CFEF767FEFEF7DF
:105BF000E1F8BD4680BDC046B00700208007002008
:105C000094070020A8070020AC070020F0670010D0
:105C100080B582B000AF78607B6819687B681A7BBA
:105C20007B680433081C111C1A1CFBF7ADFA7B6857
:105C300019687B681A7B7B685B7B081C111C1A1C2B
:105C4000FCF790F80023181CBD4602B080BDC0468A
:105C500080B500AF034B034A926E01218A439A66D6
:105C6000BD4680BD0000014080B584B000AF7860C3
:105C70000F23FB1800221A700E23FB1800221A7043
:105C80000D23FB1800221A700C23FB1800221A7037
:105C90000B23FB1800221A707B681B7801225340EB
:105CA000DBB2002B1BD00E23FA180D23FB18127841
:105CB0001B781343DAB20C23FB181B781343D9B2B9
:105CC0000F23FB180B22BA1812780A431A700F23FD
:105CD000FB181B78002B02D17B6801221A700F235E
:105CE000FB181B78181CBD4604B080BD90B585B06C
:105CF00000AF3B1C054A13CA13C312681A603B1C51
:105D0000181CFBF719FBBD4605B090BD506800108C
:105D100080B584B000AFF8607A600B23FB180A1CD2
:105D20001A70FB689B680B22BA1812780721914001
:105D30000A1CD2431A400B23FB181B787968994040
:105D40000B1C1A43FB689A60BD4604B080BDC04678
:105D500080B582B000AF78600A1CFB1C1A707B68AB
:105D6000DB68072293431A1CFB1C1B7807210B409E
:105D70001A437B68DA60BD4602B080BD80B582B050
:105D800000AF78607B68DB68802252001A437B6832
:105D9000DA60BD4602B080BD80B582B000AF7860E9
:105DA0007B681B6840221A437B681A60BD4602B0BC
:105DB00080BDC04680B582B000AF78607B681B684C
:105DC000402293431A1C7B681A60BD4602B080BD16
:105DD00080B582B000AF78607B681B6801221A43EF
:105DE0007B681A60BD4602B080BDC04680B582B0F7
:105DF00000AF78607B681B68012293431A1C7B68A4
:105E00001A60BD4602B080BD80B582B000AF786038
:105E10007B681B68802293431A1C7B681A60BD460E
:105E200002B080BD80B584B000AFF8607A600B230B
:105E3000FB180A1C1A70FB681B68FA6812689268E3
:105E40000B217918097807208840011CC9431140AB
:105E50000B22BA18127878689040021C0A439A60A4
:105E6000BD4604B080BDC04680B582B000AF78604A
:105E700039607B681B687A68126811683A680A435F
:105E80001A60BD4602B080BD80B582B000AF7860B8
:105E90007B681A6880239B02101C191CFFF7E4FF23
:105EA000BD4602B080BDC04680B582B000AF78600C
:105EB0007B681A6880235B02101C191CFFF7D4FF53
:105EC000BD4602B080BDC04680B584B000AF7860EA
:105ED0000023FB607B68181C00F032F87B68A4226A
:105EE0009B5C002B03D0FB6802221343FB607B68A2
:105EF000A3229B5C002B03D0FB6804221343FB60AE
:105F00007B68A5229B5C002B03D0FB68082213430F
:105F1000FB607B685A68FB68101C191CFBF708FFC4
:105F20007B68A6229B5C002B07D07B685A68802385
:105F3000DB03101C191CFBF7FBFEBD4604B080BD43
:105F400080B582B000AF78607B6859687B688C222E
:105F50009B581B78081C00211A1CFFF7D9FE7B6890
:105F600059687B688C229B585B78081C04211A1C9A
:105F7000FFF7CEFE7B6859687B688C229B589B7824
:105F8000081C08211A1CFFF7C3FE7B6859687B6850
:105F90008C229B58DB78081C0C211A1CFFF7B8FEDA
:105FA000BD4602B080BDC04680B582B000AF78600B
:105FB0007B681B68181CFBF7A1FD7B68DB79002B55
:105FC0000CD07B681A687B685B79101C04211A1C52
:105FD000FFF728FF7B68181CFFF756FF7B681B7ACA
:105FE000002B0CD07B681A687B689B79101C002101
:105FF0001A1CFFF717FF7B68181CFFF755FFBD46FB
:1060000002B080BD90B585B000AF78600F23FB185B
:1060100000221A707B681B680F22BC18181CFBF743
:106020004FFE031C23700F23FB181B78181CBD4662
:1060300005B090BD90B585B000AF786039600F2392
:10604000FB1800221A703B68BB607B681B68BA684B
:1060500012681A617B681B68BA6852685A617B686B
:106060001B680F22BC18181CFBF7E8FD031C2370EB
:106070000F23FB181B78181CBD4605B090BDC04609
:1060800090B587B000AF78601723FB1800221A7014
:106090007B6890229B58FB607B681B681722BC18AA
:1060A000181CFDF7B9FD031C23701723FB181B7880
:1060B000002B00D085E07B685A687B689B68101CC9
:1060C000191CFBF78FFB031E76D17B685B68181CDD
:1060D000FFF762FE7B685B68181CFFF779FE7B6840
:1060E0005B68181CFFF790FE7B68A7229B5C002B67
:1060F00005D07B685B68181CFFF740FE16E07B68E4
:1061000098229B5818687B6898229B5819797B685D
:106110009C229B581A1CFBF737F87B6859687B68F0
:10612000A0229B5C081C191CFFF712FE7B68181C40
:10613000FFF7CAFE00233B611AE07A683B6902332D
:106140009B00D3185B68BB607B681B6859687B68E1
:10615000A1229A5CBB681B79081C111C1A1CFBF756
:10616000EFFBBB68181CFFF71FFF3B6901333B6166
:106170007B68A2229B5C1A1E3B699A42DDD87B6831
:106180005B68181CFFF716FE7B685B68181CFFF73E
:106190002DFE7B68A7229B5C01225340DBB2002BC3
:1061A00013D0FB681868FB6819797B6894229B58A8
:1061B0001A1CFAF7E9FF08E01723FB1801221A70EE
:1061C00003E01723FB1801221A701723FB181B7812
:1061D000181CBD4607B090BD90B583B000AFFB1D45
:1061E00000221A70FC1D274B181CFFF73DFD031CF5
:1061F0002370FB1D1B78002B06D1FC1D224B181CA5
:10620000FCF700FB031C2370FB1D1B78002B06D141
:10621000FC1D1E4B181CFFF733FF031C2370FB1DD6
:106220001B78002B06D1FC1D194B181CFCF736FF00
:10623000031C2370FB1D1B78002B06D1FC1D154B86
:10624000181CFFF7E5FC031C2370FB1D1B78002BBB
:1062500006D1FC1D104B181CFFF7DAFC031C237041
:10626000FB1D1B78002B06D1FC1D0C4B181CFFF7E7
:10627000CFFC031C2370FB1D1B78181CBD4603B00C
:1062800090BDC046BC070020500500209C6800104F
:106290009C05002020680010306800104068001045
:1062A00080B582B000AF78600A1CFB1C1A70FB1C22
:1062B0001B7801229A407B685A60BD4602B080BDBF
:1062C00080B582B000AF78600A1CFB1C1A70FB1C02
:1062D0001B78802252029A407B685A60BD4602B009
:1062E00080BDC04680B582B000AF78600A1CFB1C40
:1062F0001A70FB1C1B78034A9A407B685A60BD46A3
:1063000002B080BD0100010080B582B000AF7860AE
:106310007B681A687B681B7B101C191CFFF7C0FF89
:10632000BD4602B080BDC04680B582B000AF786087
:106330007B681A687B681B7B101C191CFFF7C0FF69
:10634000BD4602B080BDC04680B582B000AF786067
:106350007B681A687B681B7B101C191CFFF7C2FF47
:10636000BD4602B080BDC04680B584B000AF786045
:10637000164B1B781A1C164B1A60164A164B101C2B
:10638000191C0122FCF756FA144BDB681B68FB60F2
:10639000124BBB60BB68DA680D4B1B68101C191CE4
:1063A000FFF748FEFB6810330B4A12781A70BB687F
:1063B000DB68181CFFF726FE094B181CFFF7C4FF0B
:1063C000FA239B00181CFEF777FCD1E70808002091
:1063D0000C08002050050020090800209C680010CF
:1063E0002068001080B582B000AF7860114A124B6F
:1063F000101C191C0122FCF71DFA104A0E4B101C30
:10640000191C082200F090F80D4A0C4B101C191CA6
:106410000122FCF757FE0B4B181CFFF775FFFA2003
:10642000FEF74AFC074B181CFFF77EFFFA20FEF729
:1064300043FCDBE750050020090800200A08002083
:106440009C0500204068001090B585B002AFFC1D8F
:10645000FFF7C2FE031C2370FB1D1B78002B00D02E
:10646000FEE70D490D4A0123009300230193081C08
:10647000111C3C220023FEF7D5FA0949094A0123E1
:10648000009300230193081C111C3C220023FEF7FB
:10649000C9FAFEF735FCFEE7696300104469001095
:1064A000E56300104C690010014B18687047C04646
:1064B000400600200E4B70B500251E1C0D4CE41A42
:1064C000A410A54204D0AB00F35898470135F8E773
:1064D000FCF7E8F8084B00251E1C084CE41AA41031
:1064E000A54204D0AB00F35898470135F8E770BDDA
:1064F00044060020440600204406002044060020F4
:1065000008B5034B011C186800F066F808BDC046CA
:106510004006002008B5034B011C186800F016F86F
:1065200008BDC04640060020002310B5934203D0AA
:10653000CC5CC4540133F9E710BD031C82189342AC
:1065400002D019700133FAE77047000030B5002916
:106550003ED004390B68002B00DAC9181D4A1368B5
:10656000141C002B02D14B60116031E099420DD216
:1065700008680A189A4203D11368C3180B6053685D
:106580004B60216024E08A4203D8131C5A68002A19
:10659000F9D11D685C198C420BD10968691858182B
:1065A0001960904214D110685268091819605A6035
:1065B0000EE08C4202D90C23036009E008680C1835
:1065C000944203D114685268001908604A60596007
:1065D00030BDC046C4070020032370B5CC1C9C43CB
:1065E0000834051C0C2C01D20C2405E0002C03DA25
:1065F0000C2300202B6042E08C42F9D3204A136820
:10660000101C191C002913D00A68121B0DD40B2A68
:1066100002D90A608B181FE08B4202D15A680260CF
:106620001BE04A685A600B1C17E00B1C4968E9E73D
:10663000144E3368002B03D1281C00F025F830607D
:10664000281C211C00F020F8031C421CD0D003227F
:10665000C61C964386420AD11C60181C07210B30C9
:106660001A1D8843821A0AD05142995007E0311A04
:10667000281C00F009F8431CBAD0331CECE770BDAD
:10668000C4070020C007002038B50023064C051CB5
:10669000081C2360FBF7D2FF431C03D12368002BA7
:1066A00000D02B6038BDC0461008002080250000B7
:1066B00000080801100000009C000000010000001C
:1066C0000001044002000000B8660010AC66001033
:1066D000652D001000000000000000000000000018
:1066E00000000000000000000000000000000000AA
:1066F000C06600100000000404020000000000005A
:1067000001000000000104400500000000010440F9
:10671000040000000001044006000000900000009A
:106720000100000000000000000000000000044024
:106730000C000000980000000100000000000000B4
:10674000000008006C0500205D3A0010046700108E
:106750005C0500200C6700106C06002000000000A3
:10676000000000000000000000000000146700109E
:106770001C6700102C6700100000000000000000E3
:106780000000000000000000000000000000000009
:10679000000000003467001000000000000000004E
:1067A00000000000000000000000000000000000E9
:1067B00000000000000000000000000000000000D9
:1067C00004040000000000000000000102030100BA
:1067D00049444C4500000000092563092575092539
:1067E000750925750D0A0000546D722053766300FB
:1067F000546D725100000000C6590010C6590010B7
:10680000C65900103A5A00104E5A00108A5A001009
:10681000C6590010C65900103A5A00104E5A0010BE
:10682000000104400000000000000000080000001B
:106830000001044000000000000000000100000012
:106840000001044000000000000000000000000003
:106850000000010000003003000001000000000003
:10686000000204400A000000A40000000100000033
:10687000000004400D0000000000000000000000C7
:10688000006CDC0220A10700401F01000000000096
:10689000C00500201300000000000000A805002033
:1068A0000003045080680010906800100000000091
:1068B00000000000000000000000000000000000D8
:1068C00000000000000000000000000000000000C8
:1068D00000000000000000000000000000000000B8
:1068E00000000000000000000000000000000000A8
:1068F0000000000000000000000000000000000098
:106900000000000000000000000000000000000087
:106910000000000000000000000000000000000077
:1069200000000000000000008C680010606800108B
:10693000686800107068001078680010010101009C
:10694000000000005461736B203100005461736BD0
:086950002032000043000000AA
:106958002C48004700000000000000000000000074
:10696800000000000000000000000000000000001F
:1069780025480047000000000000000023480047A9
:106988002348004723480047234800472348004737
:106998002348004723480047234800472348004727
:1069A8002348004723480047234800472348004717
:1069B8002348004723480047234800472348004707
:1069C80023480047234800472348004723480047F7
:1069D80023480047234800472348004723480047E7
:1069E80023480047234800472348004723480047D7
:1069F80023480047234800472348004723480047C7
:106A0800234800479D100010E93C0010013E00108B
:106A1800513E00109D1000109D1000109D10001098
:106A28009D1000109D1000109D1000109D1000106A
:106A38009D1000109D100010792E0010053C0010CC
:106A4800652E0010F13B00109D1000109D100010E5
:106A58009D1000109D1000109D1000109D1000103A
:106A68009D1000109D1000109D1000109D1000102A
:106A78009D1000109D1000109D1000109D1000101A
:106A88009D1000109D1000109D1000109D1000100A
:046A98009D1000103D
:106A9C0000020048CC660010500600208800000060
:106AAC00010000000000000000000000004B00008E
:106ABC0000000400000000000800000000000000BE
:106ACC0000000000000000000000000000000000BA
